:020000040800F2
:1000000000800120CD150008990700089D07000811
:10001000C5070008C7070008C9070008000000005E
:10002000000000000000000000000000CB070008F6
:10003000CD07000800000000CF070008D107000826
:100040001D1600081D1600081D1600081D160008C4
:100050001D1600081D1600081D1600081D160008B4
:100060001D1600081D1600081D1600081D160008A4
:100070001D1600081D1600081D1600081D16000894
:100080001D1600081D1600081D16000800000000BF
:100090000000000000000000000000001D16000825
:1000A0001D1600081D1600081D1600081D16000864
:1000B0001D1600081D1600081D1600081D16000854
:1000C0001D1600081D1600081D1600081D16000844
:1000D0001D1600081D1600081D160008000000006F
:1000E0001D1600081D1600081D160008000000005F
:1000F0000000000000000000000000001D160008C5
:10010000000000001D1600081D1600081D1600083E
:1001100000000000000000000000000000000000DF
:100120001D1600081D1600081D1600081D160008E3
:100130001D16000800000000000000000000000084
:100140000000000000000000000000001D16000874
:100150001D1600081D1600081D1600081D160008B3
:100160001D1600081D160008000000000000000019
:10017000000000000000000000000000000000007F
:10018000000000001D160008000000000000000034
:040190001D16000830
:100194000348044B834202D0034B03B11847704712
:1001A4000C0000200C000020000000000548064B55
:1001B4001B1AD90F01EBA301491002D0034B03B161
:1001C400184770470C0000200C00002000000000BD
:1001D40010B5064C237843B9FFF7DAFF044B13B18B
:1001E4000448AFF300800123237010BD0C000020ED
:1001F400000000002016000808B5044B1BB1044998
:100204000448AFF30080BDE80840CFE700000000D9
:10021400100000202016000870B50F4B0F4DAB42A4
:10022400A3EB050607D0B610002455F8043B0134AF
:100234009847A642F9D801F0F1F9094D094B5E1B24
:10024400AB424FEAA60606D0002455F8043B01341D
:100254009847A642F9D870BD6416000864160008D1
:100264006416000868160008830730B547D0541E8A
:10027400002A3ED0CAB2034601E0013C39D303F858
:10028400012B9D07F9D1032C2CD9CDB205EB052503
:100294000F2C05EB054535D9A4F1100222F00F0C03
:1002A40003F1100EE6444FEA121C1A46C2E9005547
:1002B400C2E9025510327245F8D10CF1010214F072
:1002C4000C0F03EB021204F00F0C13D0ACF1040377
:1002D40023F003030433134442F8045B9342FBD139
:1002E4000CF003042CB1C9B21C4403F8011BA34253
:1002F400FBD130BD64461346002CF4D1F9E7034624
:100304001446C0E71A46A446E0E700BF53B94AB909
:10031400002908BF00281CBF4FF0FF314FF0FF3009
:1003240000F06AB9ADF1080C6DE904CE00F006F8EE
:10033400DDF804E0DDE9022304B070472DE9F0475D
:10034400089D0E4604460F46002B4AD194468C4520
:10035400B2FA82F260D942B1C2F12003974020FA86
:1003640003F30CFA02FC1F4394404FEA1C4E1FFA9D
:100374008CF6B7FBFEF1230C0EFB117743EA07431F
:1003840001FB06F098420AD91CEB030301F1FF3785
:1003940080F01581984240F21281023963441B1A9D
:1003A400A4B2B3FBFEF00EFB103344EA034400FB9B
:1003B40006F6A6420AD91CEB040400F1FF3380F0D0
:1003C4000081A64240F2FD806444023840EA0140C4
:1003D400A41B00211DB1D4400023C5E90043BDE89E
:1003E400F0878B4205D90DB1C5E90001002108460B
:1003F400F5E7B3FA83F1002946D1B34202D382422E
:1004040000F2F580841A66EB030201201746002DE2
:10041400E5D0C5E90047E2E7002A40F09380A1EB6C
:100424000C034FEA1C471FFA8CFE0121B3FBF7F6BD
:1004340007FB1630230C43EA00430EFB06F09842F8
:1004440008D91CEB030306F1FF3802D2984200F2EC
:10045400D08046461B1AA4B2B3FBF7F007FB103357
:1004640044EA03440EFB00FEA64508D91CEB040431
:1004740000F1FF3302D2A64500F2B6801846A4EB81
:100484000E0440EA0640A5E7C1F120078B4022FA9A
:1004940007FC4CEA030C06FA01FE20FA07F426FADC
:1004A40007F344EA0E0400FA01F84FEA1C404FEA4D
:1004B4001449B3FBF0FE1FFA8CF600FB1E3349EA25
:1004C40003430EFB06F9994502FA01F20BD91CEB22
:1004D40003030EF1FF3A80F08580994540F2828053
:1004E400AEF1020E6344A3EB0909A4B2B9FBF0F325
:1004F40000FB139944EA094403FB06F6A64208D913
:100504001CEB040403F1FF3068D2A64266D9023B17
:10051400644443EA0E40A41BA0FB02E6B4427346C3
:10052400B14652D34FD05DB1B8EB030264EB09047A
:1005340004FA07F722FA01F31F43CC40C5E900741B
:1005440000214CE7C2F1200120FA01F30CFA02FC6D
:1005540026FA01F1964033434FEA1C471FFA8CFEFA
:10056400B1FBF7F007FB1016190C41EA064100FB3A
:100574000EF68E4204FA02F408D91CEB010100F1D4
:10058400FF382DD28E422BD902386144891B9BB28D
:10059400B1FBF7F607FB161143EA014306FB0EF124
:1005A400994208D91CEB030306F1FF3814D299428F
:1005B40012D9023E63445B1A46EA004136E73946E3
:1005C400EDE6184602E7F045ADD2BEEB020366EB5A
:1005D4000C060138B146A6E74646ECE7034698E721
:1005E4004046D3E7D6467EE76444023847E70846E8
:1005F4000DE7023E63442DE7704700BF30B587B076
:1006040000240194029403940494059400940E4BE2
:100614001A6B42F001021A631B6B03F0010300938F
:10062400009B0A4D22462021284600F0DBFE2023B1
:100634000193012302930394049401A9284600F032
:10064400EDFD07B030BD00BF00380240000002409D
:1006540000B583B072B62021064800F0C9FE00231D
:100664000193019A044B9A42F5DC019B01330193F7
:10067400F7E700BF000002403F0D030008B50A4839
:100684000A4B03604FF4E133436000238360C3608B
:1006940003610C2242618361C36100F0E8F900B98F
:1006A40008BDFFF7D5FF00BF28000020004400402C
:1006B40000B595B03022002108A8FFF7D5FD00232E
:1006C4000393049305930693079301931E4A116CB5
:1006D40041F080511164126C02F080520192019A2F
:1006E40002931A4A116841F440411160126802F4FD
:1006F40040420292029A0221089101220B92102296
:100704000C920E910F9310924FF4A873119304233B
:1007140012930723139308A800F040FA80B90F231B
:10072400039302210491002305934FF4805206920F
:10073400079303A800F09CFC20B915B05DF804FBF6
:10074400FFF786FFFFF784FF003802400070004087
:1007540010B500F0E7FEFFF7ABFFFFF74FFFFFF721
:100764008DFF642309220849084800F0B0F91420D9
:1007740000F022FF04462021054800F039FE2046FF
:1007840000F0FCFEF3E700BF381600082800002044
:1007940000000240FEE7000000B583B020210648B7
:1007A40000F026FE00230193019A044B9A42F5DCE3
:1007B400019B01330193F7E7000002403F0D030062
:1007C400FEE7FEE7FEE770477047704708B500F0A4
:1007D400C3FE08BD82B0002100910B4B5A6C42F459
:1007E40080425A645A6C02F480420092009A019149
:1007F4001A6C42F080521A641B6C03F0805301930C
:10080400019B02B0704700BF0038024000B589B0B8
:100814000023039304930593069307930268154BEF
:100824009A4202D009B05DF804FB0021019103F55E
:10083400FA331A6C42F400321A641A6C02F400326D
:100844000192019A02911A6B42F001021A631B6B26
:1008540003F001030293029B0C23039302230493EA
:10086400032306930723079303A9034800F0D6FC48
:10087400D8E700BF0044004000000240026802F1D3
:100884000C0353E8003F23F490730C3242E8003128
:100894000029F3D1026802F1140353E8003F23F066
:1008A4000103143242E800310029F3D1036B012B18
:1008B40005D0202380F84230002303637047026888
:1008C40002F10C0353E8003F23F010030C3242E81A
:1008D40000310029F3D1ECE710B50446026813692E
:1008E40023F44053C1680B431361836802691A43BC
:1008F40043691A43C3691A430168CB6823F4164356
:1009040023F00C031343CB600268536923F4407350
:1009140081690B4353610368314A934206D002F55F
:100924008062934202D000F059FC01E000F066FCC2
:10093400E369B3F5004F29D00021031849411B187E
:1009440041F10001C90041EA5371DB0018186368E2
:100954004FEA83024FEA937341F10001FFF7D6FC9B
:10096400204AA2FB00314909642303FB11031B0144
:100974003233A2FB03235B0903F0F00202EB011202
:1009840003F00F03216813448B6010BD0023021889
:1009940043EB0301121841F10001C90041EA52710D
:1009A400D200101841F10001626892185B41FFF710
:1009B400ADFC0C4AA2FB00314909642303FB11037B
:1009C400DB003233A2FB03235B095A0002F4F87202
:1009D40002EB011203F00703216813448B60D4E790
:1009E400001001401F85EB512DE9F04383B005460B
:1009F4000E4617469946DDF828802B681C6836EAAF
:100A040004040CBF01240024BC4228D1B8F1FF3FE8
:100A1400F3D000F0ADFDA0EB0900404523D8B8F1B8
:100A2400000F22D02B68DA6812F0040FE5D0802E74
:100A3400E3D0402EE1D01A6812F0080FDDD0002474
:100A440001941A6801925B680193019B2846FFF7A1
:100A540015FF08236B6485F84040012000E0002066
:100A640003B0BDE8F0830320FAE70320F8E760B39E
:100A740010B5044690F8413013B3242384F8413070
:100A84002268D36823F40053D3602046FFF724FF81
:100A94002268136923F4904313612268536923F095
:100AA4002A0353612268D36843F40053D3600020BF
:100AB4006064202384F8413084F84230606310BDC0
:100AC40080F84030FFF7A2FED7E7012070472DE9F8
:100AD400F04182B01E4690F84130DBB2202B56D153
:100AE40004460D469046002955D00AB901204FE02E
:100AF40000234364212380F8413000F039FD074688
:100B0400A4F82480A4F82680A368B3F5805F02D0FB
:100B14004FF0000814E023692BB34FF000080FE0F6
:100B2400202384F84130032032E038F8023B226865
:100B3400C3F308035360E28C92B2013A92B2E284A6
:100B4400E38C9BB293B100963B4600228021204661
:100B5400FFF74AFF0028E3D1002DE6D015F8012B5A
:100B640023685A60E7E7A8460025E9E700963B4674
:100B7400002240212046FFF737FF18B9202384F8CC
:100B8400413005E0202384F84130032000E00220B6
:100B940002B0BDE8F0810120FAE70000002800F06F
:100BA400E08170B582B00446036813F0010F3BD0B6
:100BB4009F4B9B6803F00C03042B2CD09C4B9B682D
:100BC40003F00C03082B21D06368B3F5803F4FD0AA
:100BD400B3F5A02F52D0964B1A6822F480321A60D3
:100BE4001A6822F480221A606368002B50D000F047
:100BF400BFFC05468E4B1B6813F4003F14D100F074
:100C0400B7FC401B6428F5D90320B1E1884B5B682D
:100C140013F4800FD8D0864B1B6813F4003F03D025
:100C24006368002B00F09F81236813F0020F54D0F7
:100C34007F4B9B6813F00C0F3ED07D4B9B6803F0F9
:100C44000C03082B33D0E368002B68D0794B0122C6
:100C54001A6000F08DFC0546754B1B6813F0020FFB
:100C640054D100F085FC401B0228F5D903207FE114
:100C74006F4A136843F480331360B5E76C4B1A680A
:100C840042F480221A601A6842F480321A60ABE798
:100C940000F06EFC0546664B1B6813F4003FC3D09E
:100CA40000F066FC401B6428F5D9032060E1604B2A
:100CB4005B6813F4800FC6D15D4B1B6813F0020F01
:100CC40003D0E368012B40F05081594A136823F0A4
:100CD400F803216943EAC1031360236813F0080F82
:100CE40042D063696BB3534B0122C3F8802E00F0EA
:100CF4003FFC05464E4B5B6F13F0020F34D100F0FE
:100D040037FC401B0228F5D9032031E1484A136817
:100D140023F0F803216943EAC1031360DDE7454B7F
:100D240000221A6000F024FC0546414B1B6813F0B6
:100D3400020FD2D000F01CFC401B0228F5D903207E
:100D440016E13C4B0022C3F8802E00F011FC05464E
:100D5400374B5B6F13F0020F06D000F009FC401B09
:100D64000228F5D9032003E1236813F0040F77D098
:100D74002F4B1B6C13F0805F33D1002301932C4B5A
:100D84001A6C42F080521A641B6C03F08053019376
:100D9400019B0125284B1B6813F4807F23D0A36893
:100DA400012B34D0052B38D0214B1A6F22F00102CD
:100DB4001A671A6F22F004021A67A368002B3DD049
:100DC40000F0D6FB06461A4B1B6F13F0020F46D1F8
:100DD40000F0CEFB801B41F288339842F3D9032004
:100DE400C6E00025D6E7144A136843F48073136001
:100DF40000F0BEFB0646104B1B6813F4807FCED177
:100E040000F0B6FB801B0228F5D90320B0E0084AA5
:100E1400136F43F001031367CFE7054B1A6F42F0DA
:100E240004021A671A6F42F001021A67C5E700BF8D
:100E340000380240000047420070004000F098FB78
:100E44000646524B1B6F13F0020F08D000F090FBC4
:100E5400801B41F288339842F3D9032088E0EDB92E
:100E6400A369002B00F08380484A926802F00C02C8
:100E7400082A51D0022B17D0454B00221A6600F0E5
:100E840077FB0446414B1B6813F0007F42D000F00F
:100E94006FFB001B0228F5D9032069E03B4A136C61
:100EA40023F080531364DBE7394B00221A6600F009
:100EB4005FFB0546354B1B6813F0007F06D000F03E
:100EC40057FB401B0228F5D9032051E0E369226A4D
:100ED4001343626A43EA8213A26A5208013A43EA5C
:100EE4000243E26A43EA0263284A5360284B012220
:100EF4001A6600F03DFB0446244B1B6813F0007F88
:100F040006D100F035FB001B0228F5D903202FE0A1
:100F140000202DE000202BE0012B2BD01B4B5B6825
:100F240003F48001E269914226D103F03F02216A71
:100F34008A4223D1616A47F6C0721A40B2EB811F1C
:100F44001ED103F44031A26A5208013AB1EB024FB8
:100F540018D103F07063E26AB3EB026F14D100207E
:100F640006E001207047012002E0012000E000209B
:100F740002B070BD0120FBE70120F9E70120F7E78B
:100F84000120F5E70120F3E70120F1E700380240F2
:100F94000000474208B5334B9B6803F00C03042B55
:100FA4005BD0082B5BD12F4B5A6802F03F025B6881
:100FB40013F4800F2CD02B4B5868C0F388104FEAE1
:100FC400401CBCEB000C6EEB0E0E4FEA8E1343EA92
:100FD4009C634FEA8C11B1EB0C0163EB0E03DB0055
:100FE40043EA5173C90011EB000C43F100035902A9
:100FF40000234FEA4C2041EADC51FFF787F9194BF3
:101004005B68C3F3014301335B00B0FBF3F008BD3D
:10101400144B5868C0F388104FEA401CBCEB000C1A
:101024006EEB0E0E4FEA8E1343EA9C634FEA8C116B
:10103400B1EB0C0163EB0E03DB0043EA5173C9000F
:1010440011EB000C43F10003990200234FEA8C20BA
:1010540041EA9C51FFF75AF9D1E70348D7E703481F
:10106400D5E700BF0038024000127A000024F400E3
:10107400002800F09B8070B50D4604464F4B1B685A
:1010840003F007038B4208D2CBB24C4A13701368A7
:1010940003F007038B4240F08B80236813F0020FA8
:1010A40017D013F0040F04D0454A936843F4E05377
:1010B4009360236813F0080F04D0414A936843F403
:1010C400604393603E4A936823F0F003A1680B43A6
:1010D4009360236813F0010F32D06368012B21D091
:1010E4009A1E012A25D9364A126812F0020F61D0DD
:1010F40033498A6822F0030213438B6000F038FA04
:1011040006462F4B9B6803F00C036268B3EB820F17
:1011140016D000F02DFA801B41F288339842F0D9A2
:10112400032042E0264A126812F4003FE0D1012075
:101134003BE0234A126812F0007FD9D1012034E049
:101144001E4B1B6803F00703AB4207D9EAB21B4BE3
:101154001A701B6803F00703AB422DD1236813F008
:10116400040F06D0164A936823F4E053E1680B4356
:101174009360236813F0080F07D0114A936823F48F
:101184006043216943EAC1039360FFF703FF0C4BFB
:101194009B68C3F303130B4AD35CD8400A4B186013
:1011A4000A4B186800F098F9002070BD01207047C0
:1011B4000120FAE70120F8E70120F6E7003C0240AD
:1011C400003802404C1600080800002004000020EB
:1011D400014B1868704700BF0800002008B5FFF7EE
:1011E400F7FF044B9B68C3F38223034AD35CD840C4
:1011F40008BD00BF003802404416000808B5FFF7D8
:10120400E7FF044B9B68C3F34233034AD35CD840E3
:1012140008BD00BF003802404416000800230F2B0D
:1012240000F2D78070B582B065E085684FEA430E5E
:10123400032404FA0EF425EA0405CC6804FA0EF437
:101244002C438460446824EA02044A68C2F300120E
:101254009A40224342605CE0DC08083450F82420C1
:1012640003F00705AD004FF00F0E0EFA05FE22EA5B
:101274000E0E0A69AA4042EA0E0240F824205CE0FD
:10128400042200E0002202FA0EF22A430234514DF5
:1012940045F82420504A94686FEA0C0224EA0C05AD
:1012A4004E6816F4801F01D04CEA04054A4CA56030
:1012B400E46802EA04054E6816F4001F01D04CEA03
:1012C4000405454CE560646802EA04054E6816F4BA
:1012D400003F01D04CEA04053F4C6560246822407D
:1012E4004D6815F4803F01D04CEA04023A4C226068
:1012F40001330F2B6BD801229A400C6804EA020CCC
:1013040032EA0404F4D14C6804F00304013C012CD7
:101314008BD94A6802F00302032A09D0C4685D002D
:101324000322AA4024EA02048A68AA402243C26033
:101334004A6802F00302022A8ED004684FEA430E80
:10134400032202FA0EF224EA02044A6802F00302BB
:1013540002FA0EF2224302604A6812F4403FC7D0F8
:10136400002201921D4A546C44F480445464526C2B
:1013740002F480420192019A9C08A51C154A52F875
:10138400255003F0030E4FEA8E0E0F2202FA0EF2DE
:1013940025EA0205124A90423FF474AF02F58062D6
:1013A40090420ED002F5806290420CD002F5806229
:1013B40090420AD002F5806290423FF461AF072266
:1013C40061E701225FE702225DE703225BE702B0E7
:1013D40070BD704700380140003C014000380240B5
:1013E400000002400AB181617047090481617047BD
:1013F400436901EA030221EA030141EA02418161EE
:1014040070470000002808DB0901C9B200F1604000
:1014140000F5614080F80013704700F00F000901E7
:10142400C9B2014B1954704714ED00E000B500F047
:101434000700C0F1070CBCF1040F28BF4FF0040CE7
:10144400031D062B0FD9C31E4FF0FF3E0EFA0CF0FE
:1014540021EA000199400EFA03FE22EA0E0241EA53
:1014640002005DF804FB0023EEE70000074AD3689E
:1014740023F4E0631B041B0C000200F4E06003434C
:1014840043F0BF6343F40033D360704700ED00E0E2
:1014940010B50446054BD868C0F30220FFF7C6FF19
:1014A40001462046FFF7AEFF10BD00BF00ED00E08F
:1014B4000138B0F1807F0BD24FF0E0235861054A28
:1014C400F02182F823100020986107221A617047E6
:1014D4000120704700ED00E010B504460E4B1A7869
:1014E4004FF47A73B3FBF2F30C4A1068B0FBF3F0D9
:1014F400FFF7DEFF68B90F2C01D901200AE00022B2
:1015040021464FF0FF30FFF7C3FF054B1C6000205E
:1015140000E0012010BD00BF0000002008000020F2
:101524000400002008B50B4B1A6842F400721A60DC
:101534001A6842F480621A601A6842F480721A606F
:101544000320FFF793FF0020FFF7C6FFFFF742F9E0
:10155400002008BD003C0240034A1168034B1B787D
:101564000B441360704700BF70000020000000208F
:10157400014B1868704700BF7000002038B504465E
:10158400FFF7F6FF0546B4F1FF3F02D0044B1B788A
:101594001C44FFF7EDFF401BA042FAD338BD00BF47
:1015A40000000020034AD2F8883043F47003C2F8E4
:1015B4008830704700ED00E01E2801DD642070478C
:1015C4004FF4FA7070470000DFF834D0FFF7EAFFF9
:1015D4000C480D490D4A002302E0D458C45004338A
:1015E400C4188C42F9D30A4A0A4C002301E0136060
:1015F4000432A242FBD3FEF70FFEFFF7A9F87047AF
:1016040000800120000000200C0000206C1600085F
:101614000C00002074000020FEE70000F8B500BFB5
:10162400F8BC08BC9E467047F8B500BFF8BC08BCBF
:041634009E46704717
:10163800424F4F545F4F4B0D0A000000000000005E
:10164800010203040000000000000000010203047E
:041658000607080970
:08165C00E4ECFF7F0100000037
:04166400FD0100087C
:04166800D5010008A0
:0C166C0001000000100000000024F40049
:04000005080015CD0D
:00000001FF
